:100000000C94E3000C940B010C940B010C940B0169
:100010000C940B010C940B010C940B010C940B0130
:100020000C940B010C940B010C940B010C940B0120
:100030000C940B010C940B010C940B010C940B0110
:100040000C940A090C940B010C949E0A0C94F00A6F
:100050000C940B010C940B010C940B010C940B01F0
:100060000C940B010C940B01005EBCE2613FDD833C
:10007000C29C7E20A3FD1F419DC3217FFCA2401E88
:100080005F01E3BD3E6082DC237D9FC1421CFEA078
:10009000E1BF5D0380DE3C62BEE0025CDF81633D68
:1000A0007C22C09E1D43A1FF4618FAA427799BC558
:1000B00084DA3866E5BB5907DB856739BAE4065848
:1000C0001947A5FB7826C49A653BD987045AB8E638
:1000D000A7F91B45C6987A24F8A6441A99C7257B28
:1000E0003A6486D85B05E7B98CD2306EEDB3510F18
:1000F0004E10F2AC2F7193CD114FADF3702ECC9208
:10010000D38D6F31B2EC0E50AFF1134DCE90722CF7
:100110006D33D18F0C52B0EE326C8ED0530DEFB1E7
:10012000F0AE4C1291CF2D73CA947628ABF51749D7
:100130000856B4EA6937D58B5709EBB536688AD4C7
:1001400095CB2977F4AA4816E9B7550B88D6346AB7
:100150002B7597C94A14F6A8742AC896154BA9F7A7
:10016000B6E80A54D7896B35000000002400270048
:100170002A0000000000250028002B0000000000DD
:1001800023002600290004040404040404040202D9
:100190000202020203030303030301020408102006
:1001A0004080010204081020010204081020000011
:1001B0000007000201000003040600000000000028
:1001C0000000A701560C11241FBECFEFD8E0DEBF00
:1001D000CDBF12E0A0E0B1E0E6E7F3E202C0059097
:1001E0000D92A034B107D9F713E0A0E4B2E001C04A
:1001F0001D92A732B107E1F711E0C6ECD1E004C0CF
:100200002297FE010E94B511C23CD107C9F70E9496
:10021000AD0C0C94B9110C9400002F923F924F92A8
:100220005F926F927F928F929F92AF92BF92CF9286
:10023000DF92EF92FF920F931F93CF93DF933B01D7
:100240004C018091000290910102A0910202B091B4
:10025000030286159705A805B9052CF02091040224
:100260003091050260C08091280290912902A091EE
:100270002A02B0912B02681679068A069B0644F082
:1002800081E080934A0220912C0230912D024BC0D4
:10029000E8E0F2E0C1E0D0E020803180428053808D
:1002A0002614370448045904B4F1FE01319723E0C1
:1002B000EE0FFF1F2A95E1F7DF01AC5FBD4FAD9058
:1002C000BD90CD90DC90E050FE4FE080F180028147
:1002D00013816E187F08800A910A83E0CC0FDD1F1E
:1002E0008A95E1F7CC5FDD4F288139814A815B81B6
:1002F0002A193B094C095D09C401B3010E94301160
:100300002E183F08400A510AA20191010E9484114F
:100310002A0D3B1D08C021963896C530D10509F03D
:10032000BBCF20E030E0C901DF91CF911F910F9149
:10033000FF90EF90DF90CF90BF90AF909F908F9005
:100340007F906F905F904F903F902F9008950F9304
:100350001F930BE412E0C80162E00E94200589E5CA
:1003600092E0B8010E9456051F910F9108951F93C6
:10037000CF93DF93EC0110E08881803130F485E089
:1003800093E060E071E00E94040E85E093E06991E3
:1003900040E150E00E949F0D1F5F183069F7DF9128
:1003A000CF911F91089583E061E00E940A0A80E0E6
:1003B00060E00E940A0A85E093E040E855E260E0D0
:1003C00070E00E942B0B85E093E062E071E00E94F8
:1003D000FE0E10924A0285E093E068E171E00E940F
:1003E000FE0E85E093E063E471E00E94040E89E56F
:1003F00092E00E94A10885E093E067E571E00E9429
:10040000040E89E592E00E946505682F85E093E07F
:100410004AE050E00E949F0D85E093E06EE571E0B8
:100420000E94FE0E85E093E068E671E00E94040EF3
:1004300089E592E00E942F06882329F085E093E069
:100440006CE771E004C085E093E06FE771E00E9423
:10045000FE0E89E592E06CE672E040E00E947308CF
:10046000882331F485E093E063E871E00E94FE0E9A
:1004700085E093E067EA71E00E94040E8CE692E06A
:100480000E94B70185E093E00E94F00C89E592E0BC
:100490006CE672E049E00E941F0885E093E06AEB99
:1004A00071E00E94040E89E592E06CE672E00E9421
:1004B000E507682F85E093E04AE050E00E949F0D39
:1004C00085E093E00E94F00C0895EF92FF920F9365
:1004D0001F937C0109E512E0C8010E948007C80152
:1004E000B7010E94B1071F910F91FF90EF900895FF
:1004F000EF92FF920F931F93CF93DF930E945E09B9
:100500009B01AC018091420290914302A091440270
:10051000B091450279018A01E81AF90A0A0B1B0B0E
:10052000D801C701895E9340A040B04008F497C04D
:100530002093420230934302409344025093450279
:100540008CE692E00E9465027B018C01609146027C
:100550007091470280914802909149026F5F7F4FEE
:100560008F4F9F4F609346027093470280934802DB
:10057000909349020E940D01EC01BE01882777FD8E
:100580008095982F0E9415109B01AC01C801B701FE
:100590000E94760F88233CF481E090E09093410222
:1005A0008093400204C0109241021092400283E006
:1005B000609140020E94490A80914A02882381F09A
:1005C00085E093E067E00E94E80C85E093E067E057
:1005D0000E94E80C85E093E060ED71E00E94040E5B
:1005E00085E093E06AED71E00E94FE0EC801B7015C
:1005F00023E333E948E853E40E94120FAB01BC0146
:1006000085E093E022E030E00E94EB0E409146024C
:1006100050914702609148027091490285E093E051
:100620002AE030E00E94B10D85E093E06FEE71E0CA
:100630000E94040E85E093E0BE014AE050E00E9473
:10064000F10D85E093E06FEE71E00E94040E85E00D
:1006500093E0B801A70122E030E00E94EB0EDF91A9
:10066000CF911F910F91FF90EF900895FC01138699
:100670001586148687E090E012863197009711F076
:100680000197FACF0895DC0180E00BC0E82FF0E07D
:100690008D9190E0E827F927E859FF4FE4916150E8
:1006A0008E2F662399F70895DF92EF92FF920F93B2
:1006B0001F93FC01E08001811281F894F80181818F
:1006C0008E2981838281DE2CD0948D21828383E0E8
:1006D00090E00E94C509F80181818D2181838AE023
:1006E00090E00E94C509F8010081789485E390E0CC
:1006F0000E94C50980E010E0FF240E211F21012B7C
:1007000009F081E01F910F91FF90EF90DF90089525
:10071000EF92FF920F931F93CF93DF937C0101E041
:1007200010E0C0E0D0E0C7010E9454038111102BFB
:10073000000F2196C830D105B1F7812FDF91CF91FD
:100740001F910F91FF90EF9008951F93CF93DF9328
:10075000FC011081C181D281912F909560FF12C060
:10076000F8948A8189238A838981812B89838AE00D
:1007700090E00E94C5098A81812B8A83789487E35F
:1007800090E011C0F8948A8189238A838981812B22
:10079000898381E490E00E94C5098A81812B8A8344
:1007A000789485E090E00E94C509DF91CF911F9178
:1007B0000895CF92DF92EF92FF920F931F93CF9302
:1007C000DF938C01E42EFF24F394C0E0D0E0C62E2A
:1007D000DD2460E08F2D90E08C219D21892B09F094
:1007E00061E0C8010E94A503FF0C2196C830D10525
:1007F00081F7EE20A9F4F894D8011196ED91FC91BF
:10080000129791818C918095982391831196ED9107
:10081000FC91129792818C91809598239283789481
:10082000DF91CF911F910F91FF90EF90DF90CF90CC
:1008300008956CEC40E00E94D9030895EF92FF9276
:100840000F931F93CF93DF938C017B0165E540E00D
:100850000E94D903C0E0D0E0F701EC0FFD1FC801F2
:10086000608140E00E94D9032196C830D105A1F7EC
:10087000DF91CF911F910F91FF90EF900895DF923C
:10088000EF92FF920F931F93CF93DF93FC010081B0
:10089000C181D281F8948981D02ED0948D21898311
:1008A00078941DE7E02EFF24115059F182E090E08A
:1008B0000E94C509888190E08E219F21892BA1F398
:1008C000F8948A818D218A838981802B8983789409
:1008D00080EE91E00E94C509F89489818D21898379
:1008E00086E490E00E94C509888110E090E0E8224B
:1008F000F922EF2809F411E078948AE991E00E9446
:10090000C509812FDF91CF911F910F91FF90EF903B
:10091000DF900895AF92BF92DF92EF92FF920F9314
:100920001F93CF93DF93EC015B018D85882309F042
:1009300061C0CE010E943F04882329F41B861D86D6
:100940001C8690E06BC0CE0160EF40E00E94D903AE
:1009500001E0DD24EE24FF24F394CE010E94540331
:10096000182FCE010E945403113019F48130E1F4A4
:1009700039C0181709F58B85081770F460E0FE017F
:10098000EE0DF11D838190E02F2D30E08223932323
:10099000181619064CF003C060E0081729F009305A
:1009A00008F04CC00C874AC0FE01EE0DF11D83819A
:1009B0008F29838361E009C0612FFE01EE0DF11DD7
:1009C0009F2D9095838189238383CE010E94A50367
:1009D0000F5FFF0C19F4E394FF24F39487E08E1566
:1009E00008F0BBCF013430F0DB86DD2011F581E06B
:1009F0008D871FC01B861D861C8690E0DE0120E0CF
:100A000030E0F501E20FF31F13968C91139780836A
:100A10002F5F3F4F11962830310599F7892FDF91CD
:100A2000CF911F910F91FF90EF90DF90BF90AF900B
:100A300008958B818823F1F291E0E0CFD02EBDCFD5
:100A4000FF920F931F938C01F62E862F60E00E9479
:100A50000A0A8F2D90E0FC01E656FE4FE491D80182
:100A6000EC938A579E4FFC016491E62FF0E0EE0F65
:100A7000FF1FE458FE4F8591949112969C938E939C
:100A800011971B961C921B971D961C921D971C96E6
:100A90001C92F80187E090E012863197009711F0E0
:100AA0000197FACF1F910F91FF900895FC0182E307
:100AB00096E0928B818B768365831482108289E025
:100AC000818381E0828383830895FC01848108957A
:100AD0006F927F928F929F92AF92BF92CF92DF924E
:100AE000EF92FF920F931F93CF93DF93FB01EA01E5
:100AF0008881482F50E0998180E09C01242B352B80
:100B0000E081E23271F0E33220F4E03109F089C093
:100B100053C0E83231F0EB3309F083C040FD82C0AE
:100B20000EC04C814F3329F1403420F44F3109F08D
:100B300078C02FC04F3579F04F3709F072C0B90136
:100B4000882777FD8095982F0E94151020E030E0CF
:100B500040E85DE32EC035952795B901882777FDDC
:100B60008095982F0E94151020E030E040E05EE371
:100B700020C03595279535952795B901882777FDAC
:100B80008095982F0E94151020E030E040E85EE349
:100B900010C093E0359527959A95E1F7B90188271C
:100BA00077FD8095982F0E94151020E030E040E0FE
:100BB0005FE30E94C91032C0EF8035952795B901D7
:100BC000882777FD8095982F0E94151020E030E04F
:100BD00040E85EE30E94110F3B014C016E2D70E076
:100BE0002E81621B7109882777FD8095982F0E94BE
:100BF00015105B016C01FF2400E010E0C801B70193
:100C00000E9413109B01AC01C601B5010E947A0F2E
:100C10009B01AC01C401B3010E94120F9B01AC0106
:100C200005C008C020E030E040EC5FE7622F832F72
:100C3000942F752F262F382F492F572FB901CA010E
:100C4000DF91CF911F910F91FF90EF90DF90CF90A8
:100C5000BF90AF909F908F907F906F900895FC0110
:100C6000808108950895EF92FF920F931F938C0156
:100C70007B01FC01858196810E943F04F8018581FA
:100C80009681B7010E941E04F8018581968164EB6C
:100C900040E00E94D903F801858196810E945403A7
:100CA000F82EF801858196810E943F0480E0FF20A4
:100CB00009F481E01F910F91FF90EF900895EF925A
:100CC000FF920F931F93CF93DF93EC018B017A0177
:100CD0008D819E810E943F048D819E81B8010E947A
:100CE0001E048D819E816EE440E00E94D9038D81B7
:100CF0009E81F701628140E00E94D9038D819E812F
:100D0000F701638140E00E94D903F80180818031BE
:100D100039F08D819E81F701648140E00E94D90302
:100D20008D819E810E943F048D819E8168E448816F
:100D30000E94D9038881882331F06AE070E080E066
:100D400090E00E946C098D819E810E943F04DF919A
:100D5000CF911F910F91FF90EF900895CF92DF9266
:100D6000EF92FF920F931F938C016B017A01FC01AC
:100D7000858196810E943F04F80185819681B601A4
:100D80000E941E04F801858196816EEB40E00E946E
:100D9000D903F801858196810E948803F701808339
:100DA000F801858196810E948803F7018183F8010B
:100DB000858196810E948803F7018283F8018581ED
:100DC00096810E948803F7018383F80185819681CB
:100DD0000E948803F7018483F801858196810E942F
:100DE0008803F7018583F801858196810E94880335
:100DF000F7018683F801858196810E948803F701B7
:100E00008783F801858196810E948803F701808796
:100E1000F801858196810E943F041F910F91FF90F8
:100E2000EF90DF90CF900895DF93CF93CDB7DEB7EB
:100E300029970FB6F894DEBF0FBECDBFAE014F5F4E
:100E40005F4F0E94AE068981811181E029960FB61D
:100E5000F894DEBF0FBECDBFCF91DF910895CF9242
:100E6000DF92EF92FF920F931F93CF93DF93EC01EA
:100E70006B01452BE1F08B818823C9F088818823A1
:100E8000B1F40E945E097B018C01CE0160E070E04C
:100E90000E941407882359F40E945E096E197F0985
:100EA000800B910B6E5E72408040904070F3F601B3
:100EB0006081693039F06930A0F06A3041F06B3000
:100EC00081F40AC06EE570E080E090E00EC06CEB4B
:100ED00070E080E090E009C067E771E080E090E0BA
:100EE00004C06EEE72E080E090E00E946C09DF9139
:100EF000CF911F910F91FF90EF90DF90CF900895C9
:100F0000CF93DF93EC018D819E810E943F048D8100
:100F10009E810E9419048D819E8164E448810E9413
:100F2000D9038A81882339F0CE012196BE0140E0A1
:100F300050E00E942F07DF91CF9108950F931F93E8
:100F40008A010E94AE06C80168E00E94430320E0C7
:100F5000F8019085891709F421E0822F1F910F91E4
:100F60000895CF92DF92EF92FF920F931F93DF933A
:100F7000CF93CDB7DEB729970FB6F894DEBF0FBE7B
:100F8000CDBF8C017B016E010894C11CD11CA60150
:100F90000E949E07882329F460E070E08EEF92ECB7
:100FA00005C0C801B701A6010E94680529960FB6C1
:100FB000F894DEBF0FBECDBFCF91DF911F910F918F
:100FC000FF90EF90DF90CF900895DF93CF93CDB750
:100FD000DEB729970FB6F894DEBF0FBECDBF9C01D8
:100FE000FB0180818031E9F0C901AE014F5F5F4FA5
:100FF0000E949E078823C9F08D818F3361F0803471
:1010000018F48F3151F40DC08F3519F08F3729F452
:101010000AC08BE00BC08AE009C0807F803F29F4C2
:1010200002C089E003C08CE001C080E029960FB6C1
:10103000F894DEBF0FBECDBFCF91DF910895CF9260
:10104000DF92EF92FF921F93DF93CF93CDB7DEB77E
:1010500029970FB6F894DEBF0FBECDBF6C017B01A0
:10106000142FAE014F5F5F4F0E949E078823E1F06F
:10107000F70180818031B9F01A3051F01A3050F008
:101080001B3021F01C3031F48FE705C08FE503C021
:101090008FE301C08FE18D83C601B701AE014F5FC1
:1010A0005F4F0E945F0681E029960FB6F894DEBF7D
:1010B0000FBECDBFCF91DF911F91FF90EF90DF90DA
:1010C000CF9008950F931F938B01CB0167E00E948F
:1010D000430320E0F8019781891709F421E0822F6A
:1010E0001F910F910895EF92FF920F931F93CF934B
:1010F000DF93EC017B01042F8D819E810E943603DA
:1011000010E007C0CE01B7010E9462088823A9F051
:101110000AC08D819E81B7010E948A04882329F02C
:10112000101759F4EFCF81E001C080E0DF91CF913B
:101130001F910F91FF90EF9008951F5F0117A8F383
:10114000E8CFAF92BF92CF92DF92EF92FF920F93D0
:101150001F93DF93CF93CDB7DEB761970FB6F894A7
:10116000DEBF0FBECDBF7C01FC01858196810E9450
:101170003603F70114826E010894C11CD11C79E07A
:10118000A72EB12CAC0EBD1E01E02BC0C701B601CD
:101190000E946208882329F1F7018081882341F4A5
:1011A000C701B6010E943306882311F0F7010083BE
:1011B000C701B601A5010E94AE06F7011181C70162
:1011C000B6010E94E507811718F4F701818104C078
:1011D000C701B6010E94E507F701818384818F5F13
:1011E0008483F70185819681B6010E948A04882351
:1011F00069F661960FB6F894DEBF0FBECDBFCF91F2
:10120000DF911F910F91FF90EF90DF90CF90BF90F3
:10121000AF9008951F920F920FB60F9211242F9343
:101220003F934F935F936F937F938F939F93AF936E
:10123000BF93209178023091790240917A025091C7
:101240007B0270917C02DA01C9010296A11DB11DD9
:10125000672F6A5F6D3730F06D57DA01C901039669
:10126000A11DB11D60937C02809378029093790256
:10127000A0937A02B0937B028091740290917502E0
:10128000A0917602B09177020196A11DB11D8093C5
:10129000740290937502A0937602B0937702BF9187
:1012A000AF919F918F917F916F915F914F913F91FE
:1012B0002F910F900FBE0F901F9018958FB7F89435
:1012C000209178023091790240917A0250917B020C
:1012D0008FBFB901CA0108959B01AC017FB7F89493
:1012E0008091740290917502A0917602B09177027C
:1012F00066B5A89B05C06F3F19F00196A11DB11DF1
:101300007FBFBA2FA92F982F8827860F911DA11D67
:10131000B11D63E0880F991FAA1FBB1F6A95D1F703
:10132000BC012DC0FFB7F8948091740290917502B2
:10133000A0917602B0917702E6B5A89B05C0EF3F79
:1013400019F00196A11DB11DFFBFBA2FA92F982F2B
:1013500088278E0F911DA11DB11DE3E0880F991FF5
:10136000AA1FBB1FEA95D1F7861B970B885E934097
:10137000C8F2215030404040504068517C4F211508
:1013800031054105510571F60895019739F001972E
:1013900029F0880F991F01970197F1F70895789424
:1013A00084B5826084BD84B5816084BD85B582606A
:1013B00085BD85B5816085BDEEE6F0E08081816008
:1013C0008083E1E8F0E01082808182608083808108
:1013D00081608083E0E8F0E0808181608083E1EBE0
:1013E000F0E0808184608083E0EBF0E080818160C8
:1013F0008083EAE7F0E0808184608083808182607E
:101400008083808181608083808180688083109266
:10141000C1000895CF93DF93482F50E0CA0186564C
:101420009E4FFC0134914A575E4FFA018491882304
:1014300069F190E0880F991FFC01E859FE4FA591D2
:10144000B491FC01EE58FE4FC591D491662351F43E
:101450002FB7F8948C91932F909589238C93888142
:1014600089230BC0623061F42FB7F8948C91932FCD
:10147000909589238C938881832B88832FBF06C006
:101480009FB7F8948C91832B8C939FBFDF91CF9162
:101490000895482F50E0CA0182559E4FFC012491C7
:1014A000CA0186569E4FFC0194914A575E4FFA013D
:1014B0003491332309F440C0222351F1233071F0D9
:1014C000243028F42130A1F0223011F514C0263048
:1014D000B1F02730C1F02430D9F404C080918000ED
:1014E0008F7703C0809180008F7D8093800010C033
:1014F00084B58F7702C084B58F7D84BD09C080918B
:10150000B0008F7703C08091B0008F7D8093B000D2
:10151000E32FF0E0EE0FFF1FEE58FE4FA591B491C0
:101520002FB7F894662321F48C919095892302C0FB
:101530008C91892B8C932FBF089508951F920F9241
:101540000FB60F9211242F933F934F938F939F9336
:10155000EF93FF938091C00082FD1DC04091C600B3
:101560002091BD023091BE022F5F3F4F2F7330702C
:101570008091BF029091C0022817390771F0E09165
:10158000BD02F091BE02E358FD4F40833093BE028E
:101590002093BD0202C08091C600FF91EF919F9100
:1015A0008F914F913F912F910F900FBE0F901F90F1
:1015B0001895E0911103F0911203E05CFF4F8191C7
:1015C000919120813181805C9F4F821B930B60E45D
:1015D00070E00E944F11892B11F00E949D0A08951E
:1015E0001F920F920FB60F9211242F933F938F9358
:1015F0009F93EF93FF932091010330910203809119
:101600000303909104032817390731F48091C10036
:101610008F7D8093C10014C0E0910303F091040317
:10162000EF53FD4F208180910303909104030196B5
:101630008F73907090930403809303032093C600EC
:10164000FF91EF919F918F913F912F910F900FBE3E
:101650000F901F901895AF92BF92DF92EF92FF927A
:101660000F931F93CF93DF93EC017A018B01DD245D
:10167000D39491E0A92EB12CEC89FD89DD2069F08D
:10168000C50108A002C0880F991F0A94E2F7808361
:1016900060E874E88EE190E005C0108260E472E4D6
:1016A0008FE090E0A80197010E9462112150304024
:1016B00040405040569547953795279580E120301A
:1016C000380720F0DD2011F0DD24D6CFE889F98934
:1016D0003083EA89FB89208319A2EE89FF89408142
:1016E00021E030E0C9010C8C02C0880F991F0A94D8
:1016F000E2F7482B4083EE89FF894081C9010D8CB8
:1017000002C0880F991F0A94E2F7482B4083EE89A4
:10171000FF894081C9010E8C02C0880F991F0A946D
:10172000E2F7482B4083EE89FF8980810F8C02C04D
:10173000220F331F0A94E2F7209528232083DF919C
:10174000CF911F910F91FF90EF90DF90BF90AF90DE
:101750000895DC011C96ED91FC911D97E05CFF4F14
:101760008191919120813181805C9F4F821B930BED
:1017700060E470E00E944F110895DC011C96ED9129
:10178000FC911D97E05CFF4F20813181E054F040D7
:10179000DF01AE5BBF4F8D919C91119728173907E0
:1017A00019F42FEF3FEF07C08D919C91E80FF91FBF
:1017B0008081282F30E0C9010895DC011C96ED914D
:1017C000FC911D97E05CFF4F20813181E054F04097
:1017D000DF01AE5BBF4F8D919C91119728173907A0
:1017E00019F42FEF3FEF10C08D919C911197E80FE6
:1017F000F91F20818D919C91119701968F739070A4
:1018000011969C938E9330E0C9010895DC01919666
:101810008C919197882339F05496ED91FC915597CE
:10182000808186FFF9CF91961C920895CF93DF9324
:10183000EC01EE85FF85E05CFF4F20813181E054B3
:10184000F0402F5F3F4F2F733070DF01AE5BBF4F13
:101850008D919C91119728173907D1F3E05CFF4FC8
:1018600080819181E054F040E80FF91F6083EE859C
:10187000FF85E05CFF4F31832083EE89FF89208163
:1018800081E090E00F8C02C0880F991F0A94E2F764
:10189000282B208381E089A3EC89FD8980818064E5
:1018A000808381E090E0DF91CF910895109208034A
:1018B0001092070388EE93E0A0E0B0E08093090364
:1018C00090930A03A0930B03B0930C0384E392E07C
:1018D00090930603809305038DE792E090931203A3
:1018E0008093110381EC92E090931403809313038F
:1018F00085EC90E0909316038093150384EC90E0C0
:10190000909318038093170380EC90E090931A0350
:101910008093190381EC90E090931C0380931B0348
:1019200082EC90E090931E0380931D0386EC90E080
:101930009093200380931F0384E08093210383E02E
:101940008093220387E08093230385E08093240320
:1019500081E08093250308950895CF93DF930E943B
:10196000CF090E94AC0C0E94D301C9EDDAE00E94BD
:1019700078022097E1F30E94D90AF9CFCF92DF9243
:10198000EF92FF920F931F93CF93DF937C016B0134
:101990008A01C0E0D0E00FC0D6016D916D01D70182
:1019A000ED91FC910190F081E02DC7010995C80FE0
:1019B000D91F015010400115110571F7CE01DF91BB
:1019C000CF911F910F91FF90EF90DF90CF900895EE
:1019D000DC01ED91FC910190F081E02D09950895D5
:1019E000EF92FF920F931F938C01DC01ED91FC911C
:1019F0000190F081E02D6DE009957C01D801ED9119
:101A0000FC910190F081E02DC8016AE009959C01EC
:101A10002E0D3F1DC9011F910F91FF90EF9008956A
:101A2000CF93DF93EC016115710519F420E030E0EC
:101A30000FC0DB010D900020E9F71197A61BB70B33
:101A4000E881F9810280F381E02DAD0109959C01C7
:101A5000C901DF91CF9108954F925F927F928F924B
:101A60009F92AF92BF92CF92DF92EF92FF920F932D
:101A70001F93DF93CF93CDB7DEB7A1970FB6F8943E
:101A8000DEBF0FBECDBF2C01742ECB01223008F477
:101A90002AE019A231E2C32ED12CCC0EDD1E822EFB
:101AA0009924AA24BB24672D752FA50194010E94B7
:101AB000621179018A01C801B701A50194010E9450
:101AC0003011472D461B0894C108D1084A3014F440
:101AD000405D01C0495CF6014083E114F104010559
:101AE000110521F07E2C5F2DC801DDCFC201B601AA
:101AF0000E94100DA1960FB6F894DEBF0FBECDBFA9
:101B0000CF91DF911F910F91FF90EF90DF90CF90D9
:101B1000BF90AF909F908F907F905F904F9008956F
:101B2000DC012115310541F4ED91FC910190F0812A
:101B3000E02D642F099508950E942C0D0895EF92D1
:101B4000FF920F931F939A01E62EFF2400E010E00E
:101B5000B801A7010E94900D1F910F91FF90EF9087
:101B60000895CF92DF92EF92FF920F931F93CF933E
:101B7000DF93EC016A017B012115310541F4E88115
:101B8000F9810190F081E02D642F09951FC02A3062
:101B90003105D1F477FF17C0E881F9810190F08118
:101BA000E02D6DE209958C0144275527BA014C19A7
:101BB0005D096E097F09CE012AE00E942C0D980173
:101BC000280F391F04C02AE00E942C0D9C01C90176
:101BD000DF91CF911F910F91FF90EF90DF90CF9009
:101BE0000895EF92FF920F931F937B019A010027B4
:101BF000F7FC0095102FB801A7010E94B10D1F91AD
:101C00000F91FF90EF9008950E94100D08957F921C
:101C10008F929F92AF92BF92CF92DF92EF92FF92FC
:101C20000F931F93CF93DF934C017A018B01722E98
:101C3000CB01BA01A80197010E942C11882321F041
:101C4000C40162EF71E021C0C0E0D0E0570168013B
:101C5000E894D7F8C601B5012FEF3FEF4FE75FE7F4
:101C60000E942C11882351F4C601B5012FEF3FEFDC
:101C70004FE75FE70E94760F181614F0C1E0D0E03E
:101C8000219739F0C40166EF71E00E94100DEC015C
:101C900093C0C801B7012FEF3FEF4FE75FE40E9409
:101CA000C510181654F0C801B7012FEF3FEF4FE7EA
:101CB0005FEC0E94760F882324F4C4016AEF71E080
:101CC000E4CFC801B70120E030E040E050E00E94DE
:101CD000760F87FD03C0C0E0D0E00EC0D401ED91C7
:101CE000FC910190F081E02DC4016DE20995EC01B9
:101CF00017FB109517F9109520E030E040E05FE306
:101D0000DD240BC0CA01B90120E030E040E251E41B
:101D10000E947A0F9B01AC01D394D71498F3C801A9
:101D2000B7010E94120F5B016C010E94E70F7B015B
:101D30008C01C401B801A7012AE030E00E94900D97
:101D4000C80FD91F772039F0C4016EEF71E00E94EF
:101D5000100DC80FD91FC801B7010E9413109B01B5
:101D6000AC01C601B5010E94110F24C020E030E093
:101D700040E251E40E94C9107B018C010E94E20FF5
:101D80005B016C01CC24B7FCC094DC2CC401B6010F
:101D9000A5012AE030E00E94B10DC80FD91FC6018D
:101DA000B5010E9415109B01AC01C801B7010E944A
:101DB000110F7A947720D1F6CE01DF91CF911F9148
:101DC0000F91FF90EF90DF90CF90BF90AF909F90DA
:101DD0008F907F900895EF92FF920F931F937C0155
:101DE0000E94070E8C01C7010E94F00C080F191FFA
:101DF000C8011F910F91FF90EF900895EF92FF920D
:101E00000F931F937C010E94100D8C01C7010E944B
:101E1000F00C080F191FC8011F910F91FF90EF9050
:101E200008955058BB27AA270ED075C166D130F04F
:101E30006BD120F031F49F3F11F41EF45BC10EF41E
:101E4000E095E7FB51C1E92F77D180F3BA1762071C
:101E500073078407950718F071F49EF58FC10EF48F
:101E6000E0950B2EBA2FA02D0B01B90190010C01AA
:101E7000CA01A0011124FF27591B99F0593F50F4C2
:101E8000503E68F11A16F040A22F232F342F44271A
:101E9000585FF3CF469537952795A795F040539512
:101EA000C9F77EF41F16BA0B620B730B840BBAF0E2
:101EB0009150A1F0FF0FBB1F661F771F881FC2F74D
:101EC0000EC0BA0F621F731F841F48F48795779561
:101ED0006795B795F7959E3F08F0B3CF9395880F18
:101EE00008F09927EE0F979587950895D9D008F4B3
:101EF00081E008950CD00FC107D140F0FED030F042
:101F000021F45F3F19F0F0C0511139C1F3C014D171
:101F100098F39923C9F35523B1F3951B550BBB27B0
:101F2000AA2762177307840738F09F5F5F4F220F5D
:101F3000331F441FAA1FA9F333D00E2E3AF0E0E856
:101F400030D091505040E695001CCAF729D0FE2FA2
:101F500027D0660F771F881FBB1F26173707480734
:101F6000AB07B0E809F0BB0B802DBF01FF279358EA
:101F70005F4F2AF09E3F510568F0B6C000C15F3F39
:101F8000ECF3983EDCF3869577956795B795F795D2
:101F90009F5FC9F7880F911D9695879597F90895CA
:101FA000E1E0660F771F881FBB1F62177307840766
:101FB000BA0720F0621B730B840BBA0BEE1F88F775
:101FC000E095089504D06894B111D9C00895BCD0AB
:101FD00088F09F5790F0B92F9927B751A0F0D1F012
:101FE000660F771F881F991F1AF0BA95C9F712C09C
:101FF000B13081F0C3D0B1E00895C0C0672F782F11
:102000008827B85F39F0B93FCCF386957795679507
:10201000B395D9F73EF490958095709561957F4F73
:102020008F4F9F4F0895E89409C097FB3EF4909519
:102030008095709561957F4F8F4F9F4F9923A9F0A1
:10204000F92F96E9BB279395F69587957795679530
:10205000B795F111F8CFFAF4BB0F11F460FF1BC074
:102060006F5F7F4F8F4F9F4F16C0882311F096E907
:1020700011C0772321F09EE8872F762F05C06623B5
:1020800071F096E8862F70E060E02AF09A95660F6E
:10209000771F881FDAF7880F9695879597F9089527
:1020A000990F0008550FAA0BE0E8FEEF1616170669
:1020B000E807F907C0F012161306E407F50798F0D1
:1020C000621B730B840B950B39F40A2661F0232BEA
:1020D000242B252B21F408950A2609F4A140A69566
:1020E0008FEF811D811D089597F99F6780E870E04B
:1020F00060E008959FEF80EC089500240A9416167E
:10210000170618060906089500240A9412161306E5
:10211000140605060895092E0394000C11F4882373
:1021200052F0BB0F40F4BF2B11F460FF04C06F5F8F
:102130007F4F8F4F9F4F089557FD9058440F551F65
:1021400059F05F3F71F04795880F97FB991F61F039
:102150009F3F79F087950895121613061406551FB0
:10216000F2CF4695F1DF08C0161617061806991F1C
:10217000F1CF86957105610508940895E894BB2711
:1021800066277727CB0197F908958ADF08F48FEF48
:1021900008950BD0C0CFB1DF28F0B6DF18F095233B
:1021A00009F0A2CFA7CF1124EACFC6DFA0F3959FF5
:1021B000D1F3950F50E0551F629FF001729FBB272E
:1021C000F00DB11D639FAA27F00DB11DAA1F649FDA
:1021D0006627B00DA11D661F829F2227B00DA11D8D
:1021E000621F739FB00DA11D621F839FA00D611D13
:1021F000221F749F3327A00D611D231F849F600D34
:10220000211D822F762F6A2F11249F5750408AF06C
:10221000E1F088234AF0EE0FFF1FBB1F661F771FF8
:10222000881F91505040A9F79E3F510570F05CCF38
:10223000A6CF5F3FECF3983EDCF3869577956795E4
:10224000B795F795E7959F5FC1F7FE2B880F911D16
:102250009695879597F9089523DF880B990B089534
:10226000629FD001739FF001829FE00DF11D649F7A
:10227000E00DF11D929FF00D839FF00D749FF00D06
:10228000659FF00D9927729FB00DE11DF91F639FA7
:10229000B00DE11DF91FBD01CF011124089597FB79
:1022A000092E07260AD077FD04D049D006D0002099
:1022B0001AF4709561957F4F0895F6F79095819582
:1022C0009F4F0895A1E21A2EAA1BBB1BFD010DC052
:1022D000AA1FBB1FEE1FFF1FA217B307E407F507D6
:1022E00020F0A21BB30BE40BF50B661F771F881FB2
:1022F000991F1A9469F760957095809590959B0148
:10230000AC01BD01CF01089597FB092E05260ED023
:1023100057FD04D0D7DF0AD0001C38F45095409503
:10232000309521953F4F4F4F5F4F0895F6F79095A9
:102330008095709561957F4F8F4F9F4F0895AA1B91
:10234000BB1B51E107C0AA1FBB1FA617B70710F0A0
:10235000A61BB70B881F991F5A95A9F780959095D2
:10236000BC01CD010895EE0FFF1F0590F491E02D03
:062370000994F894FFCF70
:1023760030000A0A0A54696D652C2074617267651B
:10238600742C2074656D700044616C6C617320540C
:10239600656D706572617475726520494320436F7F
:1023A6006E74726F6C204C6962726172792044653A
:1023B6006D6F004C6F636174696E67206465766942
:1023C6006365732E2E2E00466F756E6420002064A2
:1023D6006576696365732E00506172617369746511
:1023E60020706F7765722069733A20004F4E004F58
:1023F600464600556E61626C6520746F2066696E94
:1024060064206164647265737320666F722044652C
:1024160076696365203000446576696365203020FF
:10242600416464726573733A200044657669636536
:102436002030205265736F6C7574696F6E3A200098
:1024460046494E4953484544200043757272656EAD
:10245600742054656D70204B656C76696E3A002C5D
:1024660020006E616E00696E66006F7666002E0053
:10247600000000000F000000780000009600000039
:10248600DC000000B700000018010000D7000000C3
:1024960040010000B70000005E01000000000000DF
:1024A60000000000160CBE0CA90BDD0BBD0B060CC4
:00000001FF
